{
  "_format": "hh-sol-artifact-1",
  "contractName": "Project",
  "sourceName": "contracts/Project.sol",
  "abi": [
    {
      "inputs": [
        {
          "internalType": "address",
          "name": "_creator",
          "type": "address"
        },
        {
          "internalType": "uint256",
          "name": "_minimumContribution",
          "type": "uint256"
        },
        {
          "internalType": "uint256",
          "name": "_deadline",
          "type": "uint256"
        },
        {
          "internalType": "uint256",
          "name": "_targetContribution",
          "type": "uint256"
        },
        {
          "internalType": "string",
          "name": "_projectTitle",
          "type": "string"
        },
        {
          "internalType": "string",
          "name": "_projectDes",
          "type": "string"
        }
      ],
      "stateMutability": "nonpayable",
      "type": "constructor"
    },
    {
      "anonymous": false,
      "inputs": [
        {
          "indexed": false,
          "internalType": "uint256",
          "name": "requestId",
          "type": "uint256"
        },
        {
          "indexed": false,
          "internalType": "string",
          "name": "description",
          "type": "string"
        },
        {
          "indexed": false,
          "internalType": "uint256",
          "name": "amount",
          "type": "uint256"
        },
        {
          "indexed": false,
          "internalType": "uint256",
          "name": "noOfVotes",
          "type": "uint256"
        },
        {
          "indexed": false,
          "internalType": "bool",
          "name": "isCompleted",
          "type": "bool"
        },
        {
          "indexed": false,
          "internalType": "address",
          "name": "reciptent",
          "type": "address"
        }
      ],
      "name": "AmountWithdrawSuccessful",
      "type": "event"
    },
    {
      "anonymous": false,
      "inputs": [
        {
          "indexed": false,
          "internalType": "address",
          "name": "contributor",
          "type": "address"
        },
        {
          "indexed": false,
          "internalType": "uint256",
          "name": "amount",
          "type": "uint256"
        },
        {
          "indexed": false,
          "internalType": "uint256",
          "name": "currentTotal",
          "type": "uint256"
        }
      ],
      "name": "FundingReceived",
      "type": "event"
    },
    {
      "anonymous": false,
      "inputs": [
        {
          "indexed": false,
          "internalType": "uint256",
          "name": "requestId",
          "type": "uint256"
        },
        {
          "indexed": false,
          "internalType": "string",
          "name": "description",
          "type": "string"
        },
        {
          "indexed": false,
          "internalType": "uint256",
          "name": "amount",
          "type": "uint256"
        },
        {
          "indexed": false,
          "internalType": "uint256",
          "name": "noOfVotes",
          "type": "uint256"
        },
        {
          "indexed": false,
          "internalType": "bool",
          "name": "isCompleted",
          "type": "bool"
        },
        {
          "indexed": false,
          "internalType": "address",
          "name": "reciptent",
          "type": "address"
        }
      ],
      "name": "WithdrawRequestCreated",
      "type": "event"
    },
    {
      "anonymous": false,
      "inputs": [
        {
          "indexed": false,
          "internalType": "address",
          "name": "voter",
          "type": "address"
        },
        {
          "indexed": false,
          "internalType": "uint256",
          "name": "totalVote",
          "type": "uint256"
        }
      ],
      "name": "WithdrawVote",
      "type": "event"
    },
    {
      "inputs": [],
      "name": "completeAt",
      "outputs": [
        {
          "internalType": "uint256",
          "name": "",
          "type": "uint256"
        }
      ],
      "stateMutability": "view",
      "type": "function"
    },
    {
      "inputs": [
        {
          "internalType": "address",
          "name": "_contributor",
          "type": "address"
        }
      ],
      "name": "contribute",
      "outputs": [],
      "stateMutability": "payable",
      "type": "function"
    },
    {
      "inputs": [
        {
          "internalType": "address",
          "name": "",
          "type": "address"
        }
      ],
      "name": "contributiors",
      "outputs": [
        {
          "internalType": "uint256",
          "name": "",
          "type": "uint256"
        }
      ],
      "stateMutability": "view",
      "type": "function"
    },
    {
      "inputs": [
        {
          "internalType": "string",
          "name": "_description",
          "type": "string"
        },
        {
          "internalType": "uint256",
          "name": "_amount",
          "type": "uint256"
        },
        {
          "internalType": "address payable",
          "name": "_reciptent",
          "type": "address"
        }
      ],
      "name": "createWithdrawRequest",
      "outputs": [],
      "stateMutability": "nonpayable",
      "type": "function"
    },
    {
      "inputs": [],
      "name": "creator",
      "outputs": [
        {
          "internalType": "address payable",
          "name": "",
          "type": "address"
        }
      ],
      "stateMutability": "view",
      "type": "function"
    },
    {
      "inputs": [],
      "name": "deadline",
      "outputs": [
        {
          "internalType": "uint256",
          "name": "",
          "type": "uint256"
        }
      ],
      "stateMutability": "view",
      "type": "function"
    },
    {
      "inputs": [],
      "name": "getContractBalance",
      "outputs": [
        {
          "internalType": "uint256",
          "name": "",
          "type": "uint256"
        }
      ],
      "stateMutability": "view",
      "type": "function"
    },
    {
      "inputs": [],
      "name": "getProjectDetails",
      "outputs": [
        {
          "internalType": "address payable",
          "name": "projectStarter",
          "type": "address"
        },
        {
          "internalType": "uint256",
          "name": "minContribution",
          "type": "uint256"
        },
        {
          "internalType": "uint256",
          "name": "projectDeadline",
          "type": "uint256"
        },
        {
          "internalType": "uint256",
          "name": "goalAmount",
          "type": "uint256"
        },
        {
          "internalType": "uint256",
          "name": "completedTime",
          "type": "uint256"
        },
        {
          "internalType": "uint256",
          "name": "currentAmount",
          "type": "uint256"
        },
        {
          "internalType": "string",
          "name": "title",
          "type": "string"
        },
        {
          "internalType": "string",
          "name": "desc",
          "type": "string"
        },
        {
          "internalType": "enum Project.State",
          "name": "currentState",
          "type": "uint8"
        },
        {
          "internalType": "uint256",
          "name": "balance",
          "type": "uint256"
        }
      ],
      "stateMutability": "view",
      "type": "function"
    },
    {
      "inputs": [],
      "name": "minimumContribution",
      "outputs": [
        {
          "internalType": "uint256",
          "name": "",
          "type": "uint256"
        }
      ],
      "stateMutability": "view",
      "type": "function"
    },
    {
      "inputs": [],
      "name": "noOfContributers",
      "outputs": [
        {
          "internalType": "uint256",
          "name": "",
          "type": "uint256"
        }
      ],
      "stateMutability": "view",
      "type": "function"
    },
    {
      "inputs": [],
      "name": "numOfWithdrawRequests",
      "outputs": [
        {
          "internalType": "uint256",
          "name": "",
          "type": "uint256"
        }
      ],
      "stateMutability": "view",
      "type": "function"
    },
    {
      "inputs": [],
      "name": "projectDes",
      "outputs": [
        {
          "internalType": "string",
          "name": "",
          "type": "string"
        }
      ],
      "stateMutability": "view",
      "type": "function"
    },
    {
      "inputs": [],
      "name": "projectTitle",
      "outputs": [
        {
          "internalType": "string",
          "name": "",
          "type": "string"
        }
      ],
      "stateMutability": "view",
      "type": "function"
    },
    {
      "inputs": [],
      "name": "raisedAmount",
      "outputs": [
        {
          "internalType": "uint256",
          "name": "",
          "type": "uint256"
        }
      ],
      "stateMutability": "view",
      "type": "function"
    },
    {
      "inputs": [],
      "name": "requestRefund",
      "outputs": [
        {
          "internalType": "bool",
          "name": "",
          "type": "bool"
        }
      ],
      "stateMutability": "nonpayable",
      "type": "function"
    },
    {
      "inputs": [],
      "name": "state",
      "outputs": [
        {
          "internalType": "enum Project.State",
          "name": "",
          "type": "uint8"
        }
      ],
      "stateMutability": "view",
      "type": "function"
    },
    {
      "inputs": [],
      "name": "targetContribution",
      "outputs": [
        {
          "internalType": "uint256",
          "name": "",
          "type": "uint256"
        }
      ],
      "stateMutability": "view",
      "type": "function"
    },
    {
      "inputs": [
        {
          "internalType": "uint256",
          "name": "_requestId",
          "type": "uint256"
        }
      ],
      "name": "voteWithdrawRequest",
      "outputs": [],
      "stateMutability": "nonpayable",
      "type": "function"
    },
    {
      "inputs": [
        {
          "internalType": "uint256",
          "name": "_requestId",
          "type": "uint256"
        }
      ],
      "name": "withdrawRequestedAmount",
      "outputs": [],
      "stateMutability": "nonpayable",
      "type": "function"
    },
    {
      "inputs": [
        {
          "internalType": "uint256",
          "name": "",
          "type": "uint256"
        }
      ],
      "name": "withdrawRequests",
      "outputs": [
        {
          "internalType": "string",
          "name": "description",
          "type": "string"
        },
        {
          "internalType": "uint256",
          "name": "amount",
          "type": "uint256"
        },
        {
          "internalType": "uint256",
          "name": "noOfVotes",
          "type": "uint256"
        },
        {
          "internalType": "bool",
          "name": "isCompleted",
          "type": "bool"
        },
        {
          "internalType": "address payable",
          "name": "reciptent",
          "type": "address"
        }
      ],
      "stateMutability": "view",
      "type": "function"
    }
  ],
  "bytecode": "0x60806040526000600960006101000a81548160ff0219169083600281111562000051577f4e487b7100000000000000000000000000000000000000000000000000000000600052602160045260246000fd5b02179055506000600c553480156200006857600080fd5b50604051620029bd380380620029bd83398181016040528101906200008e919062000279565b856000806101000a81548173ffffffffffffffffffffffffffffffffffffffff021916908373ffffffffffffffffffffffffffffffffffffffff1602179055508460018190555083600281905550826003819055508160079080519060200190620000fb92919062000129565b5080600890805190602001906200011492919062000129565b50600060058190555050505050505062000523565b828054620001379062000414565b90600052602060002090601f0160209004810192826200015b5760008555620001a7565b82601f106200017657805160ff1916838001178555620001a7565b82800160010185558215620001a7579182015b82811115620001a657825182559160200191906001019062000189565b5b509050620001b69190620001ba565b5090565b5b80821115620001d5576000816000905550600101620001bb565b5090565b6000620001f0620001ea846200036a565b62000341565b9050828152602081018484840111156200020957600080fd5b62000216848285620003de565b509392505050565b6000815190506200022f81620004ef565b92915050565b600082601f8301126200024757600080fd5b815162000259848260208601620001d9565b91505092915050565b600081519050620002738162000509565b92915050565b60008060008060008060c087890312156200029357600080fd5b6000620002a389828a016200021e565b9650506020620002b689828a0162000262565b9550506040620002c989828a0162000262565b9450506060620002dc89828a0162000262565b935050608087015167ffffffffffffffff811115620002fa57600080fd5b6200030889828a0162000235565b92505060a087015167ffffffffffffffff8111156200032657600080fd5b6200033489828a0162000235565b9150509295509295509295565b60006200034d62000360565b90506200035b82826200044a565b919050565b6000604051905090565b600067ffffffffffffffff821115620003885762000387620004af565b5b6200039382620004de565b9050602081019050919050565b6000620003ad82620003b4565b9050919050565b600073ffffffffffffffffffffffffffffffffffffffff82169050919050565b6000819050919050565b60005b83811015620003fe578082015181840152602081019050620003e1565b838111156200040e576000848401525b50505050565b600060028204905060018216806200042d57607f821691505b6020821081141562000444576200044362000480565b5b50919050565b6200045582620004de565b810181811067ffffffffffffffff82111715620004775762000476620004af565b5b80604052505050565b7f4e487b7100000000000000000000000000000000000000000000000000000000600052602260045260246000fd5b7f4e487b7100000000000000000000000000000000000000000000000000000000600052604160045260246000fd5b6000601f19601f8301169050919050565b620004fa81620003a0565b81146200050657600080fd5b50565b6200051481620003d4565b81146200052057600080fd5b50565b61248a80620005336000396000f3fe60806040526004361061011f5760003560e01c8063937e09b1116100a0578063c19d93fb11610064578063c19d93fb146103bc578063c3e20c9f146103e7578063c59ee1dc14610412578063d5cef1331461043d578063ff3a9c7e146104685761011f565b8063937e09b1146102d1578063992a7dfb146102fc578063a46752ae1461033d578063b40141bf14610366578063b82c86d6146103915761011f565b80634c4cea5a116100e75780634c4cea5a1461020d5780634e695a37146102385780636f9fb98a1461026157806373e888fd1461028c578063752e19f9146102a85761011f565b806302d05d3f1461012457806303c29d581461014f5780630a7713701461017a57806324274ee9146101b757806329dcb0cf146101e2575b600080fd5b34801561013057600080fd5b5061013961049c565b6040516101469190611a77565b60405180910390f35b34801561015b57600080fd5b506101646104c0565b6040516101719190611bd2565b60405180910390f35b34801561018657600080fd5b506101a1600480360381019061019c9190611761565b61054e565b6040516101ae9190611d6e565b60405180910390f35b3480156101c357600080fd5b506101cc610566565b6040516101d99190611d6e565b60405180910390f35b3480156101ee57600080fd5b506101f761056c565b6040516102049190611d6e565b60405180910390f35b34801561021957600080fd5b50610222610572565b60405161022f9190611d6e565b60405180910390f35b34801561024457600080fd5b5061025f600480360381019061025a91906117f1565b610578565b005b34801561026d57600080fd5b5061027661075d565b6040516102839190611d6e565b60405180910390f35b6102a660048036038101906102a19190611761565b610765565b005b3480156102b457600080fd5b506102cf60048036038101906102ca91906117f1565b6109ca565b005b3480156102dd57600080fd5b506102e6610d25565b6040516102f39190611d6e565b60405180910390f35b34801561030857600080fd5b50610323600480360381019061031e91906117f1565b610d2b565b604051610334959493929190611bf4565b60405180910390f35b34801561034957600080fd5b50610364600480360381019061035f919061178a565b610e16565b005b34801561037257600080fd5b5061037b6110b3565b6040516103889190611d6e565b60405180910390f35b34801561039d57600080fd5b506103a66110b9565b6040516103b39190611d6e565b60405180910390f35b3480156103c857600080fd5b506103d16110bf565b6040516103de9190611bb7565b60405180910390f35b3480156103f357600080fd5b506103fc6110d2565b6040516104099190611bd2565b60405180910390f35b34801561041e57600080fd5b50610427611160565b6040516104349190611d6e565b60405180910390f35b34801561044957600080fd5b50610452611166565b60405161045f9190611b9c565b60405180910390f35b34801561047457600080fd5b5061047d6113ca565b6040516104939a99989796959493929190611a92565b60405180910390f35b60008054906101000a900473ffffffffffffffffffffffffffffffffffffffff1681565b600880546104cd90612070565b80601f01602080910402602001604051908101604052809291908181526020018280546104f990612070565b80156105465780601f1061051b57610100808354040283529160200191610546565b820191906000526020600020905b81548152906001019060200180831161052957829003601f168201915b505050505081565b600a6020528060005260406000206000915090505481565b60065481565b60025481565b60045481565b6000600a60003373ffffffffffffffffffffffffffffffffffffffff1673ffffffffffffffffffffffffffffffffffffffff16815260200190815260200160002054116105fa576040517f08c379a00000000000000000000000000000000000000000000000000000000081526004016105f190611c4e565b60405180910390fd5b6000600b60008381526020019081526020016000209050600015158160030160003373ffffffffffffffffffffffffffffffffffffffff1673ffffffffffffffffffffffffffffffffffffffff16815260200190815260200160002060009054906101000a900460ff161515146106a6576040517f08c379a000000000000000000000000000000000000000000000000000000000815260040161069d90611cae565b60405180910390fd5b60018160030160003373ffffffffffffffffffffffffffffffffffffffff1673ffffffffffffffffffffffffffffffffffffffff16815260200190815260200160002060006101000a81548160ff02191690831515021790555060018160020160008282546107159190611ee0565b925050819055507fa2925e4595bf873fa82c22a1a89809777347023bf2b502d32710157a5eb8199c338260020154604051610751929190611b3c565b60405180910390a15050565b600047905090565b60008060028111156107a0577f4e487b7100000000000000000000000000000000000000000000000000000000600052602160045260246000fd5b600960009054906101000a900460ff1660028111156107e8577f4e487b7100000000000000000000000000000000000000000000000000000000600052602160045260246000fd5b14610828576040517f08c379a000000000000000000000000000000000000000000000000000000000815260040161081f90611cee565b60405180910390fd5b600254421061086c576040517f08c379a000000000000000000000000000000000000000000000000000000000815260040161086390611cce565b60405180910390fd5b6001543410156108b1576040517f08c379a00000000000000000000000000000000000000000000000000000000081526004016108a890611d0e565b60405180910390fd5b6000600a60008473ffffffffffffffffffffffffffffffffffffffff1673ffffffffffffffffffffffffffffffffffffffff168152602001908152602001600020541415610912576006600081548092919061090c906120d3565b91905055505b34600a60008473ffffffffffffffffffffffffffffffffffffffff1673ffffffffffffffffffffffffffffffffffffffff16815260200190815260200160002060008282546109619190611ee0565b92505081905550346005600082825461097a9190611ee0565b925050819055507f5cdc4ab8d637538ead6cc1904d4160343656c8c82bd266635cfd31ac008fffe082346005546040516109b693929190611b65565b60405180910390a16109c6611550565b5050565b60008054906101000a900473ffffffffffffffffffffffffffffffffffffffff1673ffffffffffffffffffffffffffffffffffffffff163373ffffffffffffffffffffffffffffffffffffffff1614610a58576040517f08c379a0000000000000000000000000000000000000000000000000000000008152600401610a4f90611c8e565b60405180910390fd5b6002806002811115610a93577f4e487b7100000000000000000000000000000000000000000000000000000000600052602160045260246000fd5b600960009054906101000a900460ff166002811115610adb577f4e487b7100000000000000000000000000000000000000000000000000000000600052602160045260246000fd5b14610b1b576040517f08c379a0000000000000000000000000000000000000000000000000000000008152600401610b1290611cee565b60405180910390fd5b6002544210610b5f576040517f08c379a0000000000000000000000000000000000000000000000000000000008152600401610b5690611cce565b60405180910390fd5b6000600b60008481526020019081526020016000209050600015158160040160009054906101000a900460ff16151514610bce576040517f08c379a0000000000000000000000000000000000000000000000000000000008152600401610bc590611d2e565b60405180910390fd5b6002600654610bdd9190611f36565b81600201541015610c23576040517f08c379a0000000000000000000000000000000000000000000000000000000008152600401610c1a90611d4e565b60405180910390fd5b8060040160019054906101000a900473ffffffffffffffffffffffffffffffffffffffff1673ffffffffffffffffffffffffffffffffffffffff166108fc82600101549081150290604051600060405180830381858888f19350505050158015610c91573d6000803e3d6000fd5b5060018160040160006101000a81548160ff0219169083151502179055507f2af8d60b878c5e8de57c8ff96e03c6cfab6de26b47e989757345cc1dceaac99883826000018360010154846002015460018660040160019054906101000a900473ffffffffffffffffffffffffffffffffffffffff16604051610d1896959493929190611df1565b60405180910390a1505050565b60015481565b600b602052806000526040600020600091509050806000018054610d4e90612070565b80601f0160208091040260200160405190810160405280929190818152602001828054610d7a90612070565b8015610dc75780601f10610d9c57610100808354040283529160200191610dc7565b820191906000526020600020905b815481529060010190602001808311610daa57829003601f168201915b5050505050908060010154908060020154908060040160009054906101000a900460ff16908060040160019054906101000a900473ffffffffffffffffffffffffffffffffffffffff16905085565b60008054906101000a900473ffffffffffffffffffffffffffffffffffffffff1673ffffffffffffffffffffffffffffffffffffffff163373ffffffffffffffffffffffffffffffffffffffff1614610ea4576040517f08c379a0000000000000000000000000000000000000000000000000000000008152600401610e9b90611c8e565b60405180910390fd5b6002806002811115610edf577f4e487b7100000000000000000000000000000000000000000000000000000000600052602160045260246000fd5b600960009054906101000a900460ff166002811115610f27577f4e487b7100000000000000000000000000000000000000000000000000000000600052602160045260246000fd5b14610f67576040517f08c379a0000000000000000000000000000000000000000000000000000000008152600401610f5e90611cee565b60405180910390fd5b6002544210610fab576040517f08c379a0000000000000000000000000000000000000000000000000000000008152600401610fa290611cce565b60405180910390fd5b6000600b6000600c5481526020019081526020016000209050600c6000815480929190610fd7906120d3565b919050555084816000019080519060200190610ff4929190611617565b508381600101819055506000816002018190555060008160040160006101000a81548160ff021916908315150217905550828160040160016101000a81548173ffffffffffffffffffffffffffffffffffffffff021916908373ffffffffffffffffffffffffffffffffffffffff1602179055507f9883a4e4f8698e4cc93bafb8d0d2376cb8c51dd322cb9fd80d02c691fcdea503600c548686600080886040516110a496959493929190611d89565b60405180910390a15050505050565b600c5481565b60035481565b600960009054906101000a900460ff1681565b600780546110df90612070565b80601f016020809104026020016040519081016040528092919081815260200182805461110b90612070565b80156111585780601f1061112d57610100808354040283529160200191611158565b820191906000526020600020905b81548152906001019060200180831161113b57829003601f168201915b505050505081565b60055481565b600060018060028111156111a3577f4e487b7100000000000000000000000000000000000000000000000000000000600052602160045260246000fd5b600960009054906101000a900460ff1660028111156111eb577f4e487b7100000000000000000000000000000000000000000000000000000000600052602160045260246000fd5b1461122b576040517f08c379a000000000000000000000000000000000000000000000000000000000815260040161122290611cee565b60405180910390fd5b600254421061126f576040517f08c379a000000000000000000000000000000000000000000000000000000000815260040161126690611cce565b60405180910390fd5b6000600a60003373ffffffffffffffffffffffffffffffffffffffff1673ffffffffffffffffffffffffffffffffffffffff16815260200190815260200160002054116112f1576040517f08c379a00000000000000000000000000000000000000000000000000000000081526004016112e890611c6e565b60405180910390fd5b60003390508073ffffffffffffffffffffffffffffffffffffffff166108fc600a60003373ffffffffffffffffffffffffffffffffffffffff1673ffffffffffffffffffffffffffffffffffffffff168152602001908152602001600020549081150290604051600060405180830381858888f1935050505015801561137b573d6000803e3d6000fd5b506000600a60003373ffffffffffffffffffffffffffffffffffffffff1673ffffffffffffffffffffffffffffffffffffffff1681526020019081526020016000208190555060019250505090565b60008060008060008060608060008060008054906101000a900473ffffffffffffffffffffffffffffffffffffffff169950600154985060025497506003549650600454955060055494506007805461142290612070565b80601f016020809104026020016040519081016040528092919081815260200182805461144e90612070565b801561149b5780601f106114705761010080835404028352916020019161149b565b820191906000526020600020905b81548152906001019060200180831161147e57829003601f168201915b50505050509350600880546114af90612070565b80601f01602080910402602001604051908101604052809291908181526020018280546114db90612070565b80156115285780601f106114fd57610100808354040283529160200191611528565b820191906000526020600020905b81548152906001019060200180831161150b57829003601f168201915b50505050509250600960009054906101000a900460ff16915047905090919293949596979899565b600354600554106115b1576002600960006101000a81548160ff021916908360028111156115a7577f4e487b7100000000000000000000000000000000000000000000000000000000600052602160045260246000fd5b021790555061160e565b60025442111561160d576001600960006101000a81548160ff02191690836002811115611607577f4e487b7100000000000000000000000000000000000000000000000000000000600052602160045260246000fd5b02179055505b5b42600481905550565b82805461162390612070565b90600052602060002090601f016020900481019282611645576000855561168c565b82601f1061165e57805160ff191683800117855561168c565b8280016001018555821561168c579182015b8281111561168b578251825591602001919060010190611670565b5b509050611699919061169d565b5090565b5b808211156116b657600081600090555060010161169e565b5090565b60006116cd6116c884611e7e565b611e59565b9050828152602081018484840111156116e557600080fd5b6116f084828561202e565b509392505050565b6000813590506117078161240f565b92915050565b60008135905061171c81612426565b92915050565b600082601f83011261173357600080fd5b81356117438482602086016116ba565b91505092915050565b60008135905061175b8161243d565b92915050565b60006020828403121561177357600080fd5b6000611781848285016116f8565b91505092915050565b60008060006060848603121561179f57600080fd5b600084013567ffffffffffffffff8111156117b957600080fd5b6117c586828701611722565b93505060206117d68682870161174c565b92505060406117e78682870161170d565b9150509250925092565b60006020828403121561180357600080fd5b60006118118482850161174c565b91505092915050565b61182381611fd4565b82525050565b61183281611f79565b82525050565b61184181611f67565b82525050565b61185081611f8b565b82525050565b61185f81611fe6565b82525050565b61186e81611ff8565b82525050565b600061187f82611ec4565b6118898185611ecf565b935061189981856020860161203d565b6118a281612207565b840191505092915050565b600081546118ba81612070565b6118c48186611ecf565b945060018216600081146118df57600181146118f157611924565b60ff1983168652602086019350611924565b6118fa85611eaf565b60005b8381101561191c578154818901526001820191506020810190506118fd565b808801955050505b50505092915050565b600061193a601b83611ecf565b915061194582612218565b602082019050919050565b600061195d602683611ecf565b915061196882612241565b604082019050919050565b6000611980603083611ecf565b915061198b82612290565b604082019050919050565b60006119a3601383611ecf565b91506119ae826122df565b602082019050919050565b60006119c6601583611ecf565b91506119d182612308565b602082019050919050565b60006119e9600d83611ecf565b91506119f482612331565b602082019050919050565b6000611a0c602083611ecf565b9150611a178261235a565b602082019050919050565b6000611a2f601983611ecf565b9150611a3a82612383565b602082019050919050565b6000611a52603683611ecf565b9150611a5d826123ac565b604082019050919050565b611a7181611fca565b82525050565b6000602082019050611a8c6000830184611829565b92915050565b600061014082019050611aa8600083018d611829565b611ab5602083018c611a68565b611ac2604083018b611a68565b611acf606083018a611a68565b611adc6080830189611a68565b611ae960a0830188611a68565b81810360c0830152611afb8187611874565b905081810360e0830152611b0f8186611874565b9050611b1f610100830185611856565b611b2d610120830184611a68565b9b9a5050505050505050505050565b6000604082019050611b516000830185611838565b611b5e6020830184611a68565b9392505050565b6000606082019050611b7a6000830186611838565b611b876020830185611a68565b611b946040830184611a68565b949350505050565b6000602082019050611bb16000830184611847565b92915050565b6000602082019050611bcc6000830184611856565b92915050565b60006020820190508181036000830152611bec8184611874565b905092915050565b600060a0820190508181036000830152611c0e8188611874565b9050611c1d6020830187611a68565b611c2a6040830186611a68565b611c376060830185611847565b611c446080830184611829565b9695505050505050565b60006020820190508181036000830152611c678161192d565b9050919050565b60006020820190508181036000830152611c8781611950565b9050919050565b60006020820190508181036000830152611ca781611973565b9050919050565b60006020820190508181036000830152611cc781611996565b9050919050565b60006020820190508181036000830152611ce7816119b9565b9050919050565b60006020820190508181036000830152611d07816119dc565b9050919050565b60006020820190508181036000830152611d27816119ff565b9050919050565b60006020820190508181036000830152611d4781611a22565b9050919050565b60006020820190508181036000830152611d6781611a45565b9050919050565b6000602082019050611d836000830184611a68565b92915050565b600060c082019050611d9e6000830189611a68565b8181036020830152611db08188611874565b9050611dbf6040830187611a68565b611dcc6060830186611865565b611dd96080830185611847565b611de660a083018461181a565b979650505050505050565b600060c082019050611e066000830189611a68565b8181036020830152611e1881886118ad565b9050611e276040830187611a68565b611e346060830186611a68565b611e416080830185611847565b611e4e60a083018461181a565b979650505050505050565b6000611e63611e74565b9050611e6f82826120a2565b919050565b6000604051905090565b600067ffffffffffffffff821115611e9957611e986121d8565b5b611ea282612207565b9050602081019050919050565b60008190508160005260206000209050919050565b600081519050919050565b600082825260208201905092915050565b6000611eeb82611fca565b9150611ef683611fca565b9250827fffffffffffffffffffffffffffffffffffffffffffffffffffffffffffffffff03821115611f2b57611f2a61211c565b5b828201905092915050565b6000611f4182611fca565b9150611f4c83611fca565b925082611f5c57611f5b61214b565b5b828204905092915050565b6000611f7282611faa565b9050919050565b6000611f8482611faa565b9050919050565b60008115159050919050565b6000819050611fa5826123fb565b919050565b600073ffffffffffffffffffffffffffffffffffffffff82169050919050565b6000819050919050565b6000611fdf8261200a565b9050919050565b6000611ff182611f97565b9050919050565b600061200382611fca565b9050919050565b60006120158261201c565b9050919050565b600061202782611faa565b9050919050565b82818337600083830152505050565b60005b8381101561205b578082015181840152602081019050612040565b8381111561206a576000848401525b50505050565b6000600282049050600182168061208857607f821691505b6020821081141561209c5761209b6121a9565b5b50919050565b6120ab82612207565b810181811067ffffffffffffffff821117156120ca576120c96121d8565b5b80604052505050565b60006120de82611fca565b91507fffffffffffffffffffffffffffffffffffffffffffffffffffffffffffffffff8214156121115761211061211c565b5b600182019050919050565b7f4e487b7100000000000000000000000000000000000000000000000000000000600052601160045260246000fd5b7f4e487b7100000000000000000000000000000000000000000000000000000000600052601260045260246000fd5b7f4e487b7100000000000000000000000000000000000000000000000000000000600052602160045260246000fd5b7f4e487b7100000000000000000000000000000000000000000000000000000000600052602260045260246000fd5b7f4e487b7100000000000000000000000000000000000000000000000000000000600052604160045260246000fd5b6000601f19601f8301169050919050565b7f4f6e6c7920636f6e7472696275746f722063616e20766f746520210000000000600082015250565b7f596f7520646f6e74206861766520616e7920636f6e747269627574656420616d60008201527f6f756e7420210000000000000000000000000000000000000000000000000000602082015250565b7f596f7520646f6e7420686176652061636365737320746f20706572666f726d2060008201527f74686973206f7065726174696f6e202100000000000000000000000000000000602082015250565b7f596f7520616c726561647920766f746564202100000000000000000000000000600082015250565b7f446561646c696e65206861732070617373656420210000000000000000000000600082015250565b7f496e76616c696420737461746500000000000000000000000000000000000000600082015250565b7f436f6e747269627574696f6e20616d6f756e7420697320746f6f206c6f772021600082015250565b7f5265717565737420616c726561647920636f6d706c6574656400000000000000600082015250565b7f4174206c656173742035302520636f6e7472696275746f72206e65656420746f60008201527f20766f746520666f722074686973207265717565737400000000000000000000602082015250565b6003811061240c5761240b61217a565b5b50565b61241881611f67565b811461242357600080fd5b50565b61242f81611f79565b811461243a57600080fd5b50565b61244681611fca565b811461245157600080fd5b5056fea264697066735822122001a5bf27a05e3282e0be1ff8c4d7d3f139dca060fae7d3502e89639268454ce164736f6c63430008040033",
  "linkReferences": {},
  "deployedLinkReferences": {}
}